{
  "contractName": "Crowdfunding",
  "abi": [
    {
      "anonymous": false,
      "inputs": [
        {
          "indexed": false,
          "internalType": "uint256",
          "name": "id",
          "type": "uint256"
        },
        {
          "indexed": false,
          "internalType": "uint256",
          "name": "amount",
          "type": "uint256"
        }
      ],
      "name": "FundsWithdrawn",
      "type": "event"
    },
    {
      "anonymous": false,
      "inputs": [
        {
          "indexed": false,
          "internalType": "uint256",
          "name": "id",
          "type": "uint256"
        },
        {
          "indexed": false,
          "internalType": "address",
          "name": "creator",
          "type": "address"
        },
        {
          "indexed": false,
          "internalType": "string",
          "name": "title",
          "type": "string"
        },
        {
          "indexed": false,
          "internalType": "string",
          "name": "description",
          "type": "string"
        },
        {
          "indexed": false,
          "internalType": "string",
          "name": "imageUrl",
          "type": "string"
        },
        {
          "indexed": false,
          "internalType": "uint256",
          "name": "fundingGoal",
          "type": "uint256"
        },
        {
          "indexed": false,
          "internalType": "uint256",
          "name": "deadline",
          "type": "uint256"
        }
      ],
      "name": "ProjectCreated",
      "type": "event"
    },
    {
      "anonymous": false,
      "inputs": [
        {
          "indexed": false,
          "internalType": "uint256",
          "name": "id",
          "type": "uint256"
        },
        {
          "indexed": false,
          "internalType": "uint256",
          "name": "amount",
          "type": "uint256"
        },
        {
          "indexed": false,
          "internalType": "address",
          "name": "contributor",
          "type": "address"
        }
      ],
      "name": "ProjectFunded",
      "type": "event"
    },
    {
      "anonymous": false,
      "inputs": [
        {
          "indexed": false,
          "internalType": "uint256",
          "name": "id",
          "type": "uint256"
        },
        {
          "indexed": false,
          "internalType": "address",
          "name": "contributor",
          "type": "address"
        },
        {
          "indexed": false,
          "internalType": "uint256",
          "name": "amount",
          "type": "uint256"
        }
      ],
      "name": "RefundClaimed",
      "type": "event"
    },
    {
      "inputs": [
        {
          "internalType": "uint256",
          "name": "",
          "type": "uint256"
        },
        {
          "internalType": "address",
          "name": "",
          "type": "address"
        }
      ],
      "name": "contributions",
      "outputs": [
        {
          "internalType": "uint256",
          "name": "",
          "type": "uint256"
        }
      ],
      "stateMutability": "view",
      "type": "function",
      "constant": true
    },
    {
      "inputs": [],
      "name": "projectCount",
      "outputs": [
        {
          "internalType": "uint256",
          "name": "",
          "type": "uint256"
        }
      ],
      "stateMutability": "view",
      "type": "function",
      "constant": true
    },
    {
      "inputs": [
        {
          "internalType": "uint256",
          "name": "",
          "type": "uint256"
        }
      ],
      "name": "projects",
      "outputs": [
        {
          "internalType": "uint256",
          "name": "id",
          "type": "uint256"
        },
        {
          "internalType": "address",
          "name": "creator",
          "type": "address"
        },
        {
          "internalType": "string",
          "name": "title",
          "type": "string"
        },
        {
          "internalType": "string",
          "name": "description",
          "type": "string"
        },
        {
          "internalType": "string",
          "name": "imageUrl",
          "type": "string"
        },
        {
          "internalType": "uint256",
          "name": "fundingGoal",
          "type": "uint256"
        },
        {
          "internalType": "uint256",
          "name": "amountRaised",
          "type": "uint256"
        },
        {
          "internalType": "uint256",
          "name": "deadline",
          "type": "uint256"
        },
        {
          "internalType": "bool",
          "name": "completed",
          "type": "bool"
        },
        {
          "internalType": "bool",
          "name": "funded",
          "type": "bool"
        }
      ],
      "stateMutability": "view",
      "type": "function",
      "constant": true
    },
    {
      "inputs": [
        {
          "internalType": "string",
          "name": "_title",
          "type": "string"
        },
        {
          "internalType": "string",
          "name": "_description",
          "type": "string"
        },
        {
          "internalType": "string",
          "name": "_imageUrl",
          "type": "string"
        },
        {
          "internalType": "uint256",
          "name": "_fundingGoal",
          "type": "uint256"
        },
        {
          "internalType": "uint256",
          "name": "_durationInDays",
          "type": "uint256"
        }
      ],
      "name": "createProject",
      "outputs": [],
      "stateMutability": "nonpayable",
      "type": "function"
    },
    {
      "inputs": [
        {
          "internalType": "uint256",
          "name": "_projectId",
          "type": "uint256"
        }
      ],
      "name": "fundProject",
      "outputs": [],
      "stateMutability": "payable",
      "type": "function",
      "payable": true
    },
    {
      "inputs": [
        {
          "internalType": "uint256",
          "name": "_projectId",
          "type": "uint256"
        }
      ],
      "name": "withdrawFunds",
      "outputs": [],
      "stateMutability": "nonpayable",
      "type": "function"
    },
    {
      "inputs": [
        {
          "internalType": "uint256",
          "name": "_projectId",
          "type": "uint256"
        }
      ],
      "name": "claimRefund",
      "outputs": [],
      "stateMutability": "nonpayable",
      "type": "function"
    },
    {
      "inputs": [
        {
          "internalType": "uint256",
          "name": "_projectId",
          "type": "uint256"
        }
      ],
      "name": "getProject",
      "outputs": [
        {
          "internalType": "uint256",
          "name": "id",
          "type": "uint256"
        },
        {
          "internalType": "address",
          "name": "creator",
          "type": "address"
        },
        {
          "internalType": "string",
          "name": "title",
          "type": "string"
        },
        {
          "internalType": "string",
          "name": "description",
          "type": "string"
        },
        {
          "internalType": "string",
          "name": "imageUrl",
          "type": "string"
        },
        {
          "internalType": "uint256",
          "name": "fundingGoal",
          "type": "uint256"
        },
        {
          "internalType": "uint256",
          "name": "amountRaised",
          "type": "uint256"
        },
        {
          "internalType": "uint256",
          "name": "deadline",
          "type": "uint256"
        },
        {
          "internalType": "bool",
          "name": "completed",
          "type": "bool"
        },
        {
          "internalType": "bool",
          "name": "funded",
          "type": "bool"
        }
      ],
      "stateMutability": "view",
      "type": "function",
      "constant": true
    },
    {
      "inputs": [
        {
          "internalType": "uint256",
          "name": "_projectId",
          "type": "uint256"
        },
        {
          "internalType": "address",
          "name": "_contributor",
          "type": "address"
        }
      ],
      "name": "getContribution",
      "outputs": [
        {
          "internalType": "uint256",
          "name": "",
          "type": "uint256"
        }
      ],
      "stateMutability": "view",
      "type": "function",
      "constant": true
    }
  ],
  "bytecode": "0x6080604052600060025534801561001557600080fd5b50611f84806100256000396000f3fe6080604052600436106100865760003560e01c80633d891f59116100595780633d891f591461014e5780635b7baf641461018b5780636c563abe146101b4578063e081dbf9146101d0578063f0f3f2c81461020d57610086565b8063056c29ee1461008b578063107046bd146100b4578063155dd5ee146100fa57806336fbad2614610123575b600080fd5b34801561009757600080fd5b506100b260048036038101906100ad9190611341565b610253565b005b3480156100c057600080fd5b506100db60048036038101906100d69190611400565b6104e0565b6040516100f19a99989796959493929190611b08565b60405180910390f35b34801561010657600080fd5b50610121600480360381019061011c9190611400565b610706565b005b34801561012f57600080fd5b50610138610960565b6040516101459190611a69565b60405180910390f35b34801561015a57600080fd5b5061017560048036038101906101709190611429565b610966565b6040516101829190611a69565b60405180910390f35b34801561019757600080fd5b506101b260048036038101906101ad9190611400565b61098b565b005b6101ce60048036038101906101c99190611400565b610c99565b005b3480156101dc57600080fd5b506101f760048036038101906101f29190611429565b610ec0565b6040516102049190611a69565b60405180910390f35b34801561021957600080fd5b50610234600480360381019061022f9190611400565b610f1b565b60405161024a9a99989796959493929190611b08565b60405180910390f35b60008211610296576040517f08c379a000000000000000000000000000000000000000000000000000000000815260040161028d90611a09565b60405180910390fd5b600081116102d9576040517f08c379a00000000000000000000000000000000000000000000000000000000081526004016102d090611949565b60405180910390fd5b600062015180826102ea9190611d23565b426102f59190611ccd565b90506002600081548092919061030a90611e39565b919050555060405180610140016040528060025481526020013373ffffffffffffffffffffffffffffffffffffffff168152602001878152602001868152602001858152602001848152602001600081526020018281526020016000151581526020016000151581525060008060025481526020019081526020016000206000820151816000015560208201518160010160006101000a81548173ffffffffffffffffffffffffffffffffffffffff021916908373ffffffffffffffffffffffffffffffffffffffff16021790555060408201518160020190805190602001906103f592919061120c565b50606082015181600301908051906020019061041292919061120c565b50608082015181600401908051906020019061042f92919061120c565b5060a0820151816005015560c0820151816006015560e082015181600701556101008201518160080160006101000a81548160ff0219169083151502179055506101208201518160080160016101000a81548160ff0219169083151502179055509050507f38c6aeb743839661492fe8d17f7c9acc37807601100b5530d16fcac5a72c4fe46002543388888888876040516104d09796959493929190611a84565b60405180910390a1505050505050565b60006020528060005260406000206000915090508060000154908060010160009054906101000a900473ffffffffffffffffffffffffffffffffffffffff169080600201805461052f90611e07565b80601f016020809104026020016040519081016040528092919081815260200182805461055b90611e07565b80156105a85780601f1061057d576101008083540402835291602001916105a8565b820191906000526020600020905b81548152906001019060200180831161058b57829003601f168201915b5050505050908060030180546105bd90611e07565b80601f01602080910402602001604051908101604052809291908181526020018280546105e990611e07565b80156106365780601f1061060b57610100808354040283529160200191610636565b820191906000526020600020905b81548152906001019060200180831161061957829003601f168201915b50505050509080600401805461064b90611e07565b80601f016020809104026020016040519081016040528092919081815260200182805461067790611e07565b80156106c45780601f10610699576101008083540402835291602001916106c4565b820191906000526020600020905b8154815290600101906020018083116106a757829003601f168201915b5050505050908060050154908060060154908060070154908060080160009054906101000a900460ff16908060080160019054906101000a900460ff1690508a565b60008060008381526020019081526020016000209050600081600001541415610764576040517f08c379a000000000000000000000000000000000000000000000000000000000815260040161075b90611a29565b60405180910390fd5b3373ffffffffffffffffffffffffffffffffffffffff168160010160009054906101000a900473ffffffffffffffffffffffffffffffffffffffff1673ffffffffffffffffffffffffffffffffffffffff16146107f6576040517f08c379a00000000000000000000000000000000000000000000000000000000081526004016107ed90611929565b60405180910390fd5b806005015481600601541015610841576040517f08c379a0000000000000000000000000000000000000000000000000000000008152600401610838906118e9565b60405180910390fd5b8060080160009054906101000a900460ff1615610893576040517f08c379a000000000000000000000000000000000000000000000000000000000815260040161088a90611909565b60405180910390fd5b60018160080160006101000a81548160ff0219169083151502179055508060010160009054906101000a900473ffffffffffffffffffffffffffffffffffffffff1673ffffffffffffffffffffffffffffffffffffffff166108fc82600601549081150290604051600060405180830381858888f1935050505015801561091e573d6000803e3d6000fd5b507fd66662c0ded9e58fd31d5e44944bcfd07ffc15e6927ecc1382e7941cb7bd24c4828260060154604051610954929190611bf0565b60405180910390a15050565b60025481565b6001602052816000526040600020602052806000526040600020600091509150505481565b600080600083815260200190815260200160002090506000816000015414156109e9576040517f08c379a00000000000000000000000000000000000000000000000000000000081526004016109e090611a29565b60405180910390fd5b8060070154421015610a30576040517f08c379a0000000000000000000000000000000000000000000000000000000008152600401610a27906119a9565b60405180910390fd5b8060080160019054906101000a900460ff1615610a82576040517f08c379a0000000000000000000000000000000000000000000000000000000008152600401610a7990611a49565b60405180910390fd5b8060080160009054906101000a900460ff1615610ad4576040517f08c379a0000000000000000000000000000000000000000000000000000000008152600401610acb906118c9565b60405180910390fd5b60006001600084815260200190815260200160002060003373ffffffffffffffffffffffffffffffffffffffff1673ffffffffffffffffffffffffffffffffffffffff1681526020019081526020016000205411610b67576040517f08c379a0000000000000000000000000000000000000000000000000000000008152600401610b5e906119e9565b60405180910390fd5b60006001600084815260200190815260200160002060003373ffffffffffffffffffffffffffffffffffffffff1673ffffffffffffffffffffffffffffffffffffffff16815260200190815260200160002054905060006001600085815260200190815260200160002060003373ffffffffffffffffffffffffffffffffffffffff1673ffffffffffffffffffffffffffffffffffffffff168152602001908152602001600020819055503373ffffffffffffffffffffffffffffffffffffffff166108fc829081150290604051600060405180830381858888f19350505050158015610c58573d6000803e3d6000fd5b507ff3f402280ef0a7905e124aa621b65eaeb2725c343e8b36d398ed78c29daf285c833383604051610c8c93929190611bb9565b60405180910390a1505050565b60008060008381526020019081526020016000209050600081600001541415610cf7576040517f08c379a0000000000000000000000000000000000000000000000000000000008152600401610cee90611a29565b60405180910390fd5b80600701544210610d3d576040517f08c379a0000000000000000000000000000000000000000000000000000000008152600401610d3490611969565b60405180910390fd5b8060080160009054906101000a900460ff1615610d8f576040517f08c379a0000000000000000000000000000000000000000000000000000000008152600401610d86906119c9565b60405180910390fd5b60003411610dd2576040517f08c379a0000000000000000000000000000000000000000000000000000000008152600401610dc990611989565b60405180910390fd5b346001600084815260200190815260200160002060003373ffffffffffffffffffffffffffffffffffffffff1673ffffffffffffffffffffffffffffffffffffffff1681526020019081526020016000206000828254610e329190611ccd565b9250508190555034816006016000828254610e4d9190611ccd565b925050819055507f26aac1e3160af10ef601ed7c1de8d440bfc3c39184731c5bb124ee8464e9fb6d823433604051610e8793929190611c19565b60405180910390a18060050154816006015410610ebc5760018160080160016101000a81548160ff0219169083151502179055505b5050565b60006001600084815260200190815260200160002060008373ffffffffffffffffffffffffffffffffffffffff1673ffffffffffffffffffffffffffffffffffffffff16815260200190815260200160002054905092915050565b60008060608060606000806000806000806000808d815260200190815260200160002060405180610140016040529081600082015481526020016001820160009054906101000a900473ffffffffffffffffffffffffffffffffffffffff1673ffffffffffffffffffffffffffffffffffffffff1673ffffffffffffffffffffffffffffffffffffffff168152602001600282018054610fba90611e07565b80601f0160208091040260200160405190810160405280929190818152602001828054610fe690611e07565b80156110335780601f1061100857610100808354040283529160200191611033565b820191906000526020600020905b81548152906001019060200180831161101657829003601f168201915b5050505050815260200160038201805461104c90611e07565b80601f016020809104026020016040519081016040528092919081815260200182805461107890611e07565b80156110c55780601f1061109a576101008083540402835291602001916110c5565b820191906000526020600020905b8154815290600101906020018083116110a857829003601f168201915b505050505081526020016004820180546110de90611e07565b80601f016020809104026020016040519081016040528092919081815260200182805461110a90611e07565b80156111575780601f1061112c57610100808354040283529160200191611157565b820191906000526020600020905b81548152906001019060200180831161113a57829003601f168201915b505050505081526020016005820154815260200160068201548152602001600782015481526020016008820160009054906101000a900460ff161515151581526020016008820160019054906101000a900460ff1615151515815250509050806000015181602001518260400151836060015184608001518560a001518660c001518760e001518861010001518961012001519a509a509a509a509a509a509a509a509a509a50509193959799509193959799565b82805461121890611e07565b90600052602060002090601f01602090048101928261123a5760008555611281565b82601f1061125357805160ff1916838001178555611281565b82800160010185558215611281579182015b82811115611280578251825591602001919060010190611265565b5b50905061128e9190611292565b5090565b5b808211156112ab576000816000905550600101611293565b5090565b60006112c26112bd84611c81565b611c50565b9050828152602081018484840111156112da57600080fd5b6112e5848285611dc5565b509392505050565b6000813590506112fc81611f20565b92915050565b600082601f83011261131357600080fd5b81356113238482602086016112af565b91505092915050565b60008135905061133b81611f37565b92915050565b600080600080600060a0868803121561135957600080fd5b600086013567ffffffffffffffff81111561137357600080fd5b61137f88828901611302565b955050602086013567ffffffffffffffff81111561139c57600080fd5b6113a888828901611302565b945050604086013567ffffffffffffffff8111156113c557600080fd5b6113d188828901611302565b93505060606113e28882890161132c565b92505060806113f38882890161132c565b9150509295509295909350565b60006020828403121561141257600080fd5b60006114208482850161132c565b91505092915050565b6000806040838503121561143c57600080fd5b600061144a8582860161132c565b925050602061145b858286016112ed565b9150509250929050565b61146e81611d7d565b82525050565b61147d81611d8f565b82525050565b600061148e82611cb1565b6114988185611cbc565b93506114a8818560208601611dd4565b6114b181611f0f565b840191505092915050565b60006114c9601983611cbc565b91507f526566756e647320616c72656164792070726f636573736564000000000000006000830152602082019050919050565b6000611509601883611cbc565b91507f46756e64696e6720676f616c206e6f74207265616368656400000000000000006000830152602082019050919050565b6000611549601783611cbc565b91507f46756e647320616c72656164792077697468647261776e0000000000000000006000830152602082019050919050565b6000611589602383611cbc565b91507f4f6e6c79207468652063726561746f722063616e20776974686472617720667560008301527f6e647300000000000000000000000000000000000000000000000000000000006020830152604082019050919050565b60006115ef601f83611cbc565b91507f4475726174696f6e206d7573742062652067726561746572207468616e2030006000830152602082019050919050565b600061162f602383611cbc565b91507f50726f6a6563742066756e64696e6720646561646c696e65206861732070617360008301527f73656400000000000000000000000000000000000000000000000000000000006020830152604082019050919050565b6000611695602583611cbc565b91507f46756e64696e6720616d6f756e74206d7573742062652067726561746572207460008301527f68616e20300000000000000000000000000000000000000000000000000000006020830152604082019050919050565b60006116fb602383611cbc565b91507f50726f6a6563742066756e64696e6720706572696f64206e6f7420796574206f60008301527f76657200000000000000000000000000000000000000000000000000000000006020830152604082019050919050565b6000611761601c83611cbc565b91507f50726f6a65637420697320616c726561647920636f6d706c65746564000000006000830152602082019050919050565b60006117a1601983611cbc565b91507f4e6f20636f6e747269627574696f6e20746f20726566756e64000000000000006000830152602082019050919050565b60006117e1602383611cbc565b91507f46756e64696e6720676f616c206d75737420626520677265617465722074686160008301527f6e203000000000000000000000000000000000000000000000000000000000006020830152604082019050919050565b6000611847601683611cbc565b91507f50726f6a65637420646f6573206e6f74206578697374000000000000000000006000830152602082019050919050565b6000611887601f83611cbc565b91507f50726f6a65637420776173207375636365737366756c6c792066756e646564006000830152602082019050919050565b6118c381611dbb565b82525050565b600060208201905081810360008301526118e2816114bc565b9050919050565b60006020820190508181036000830152611902816114fc565b9050919050565b600060208201905081810360008301526119228161153c565b9050919050565b600060208201905081810360008301526119428161157c565b9050919050565b60006020820190508181036000830152611962816115e2565b9050919050565b6000602082019050818103600083015261198281611622565b9050919050565b600060208201905081810360008301526119a281611688565b9050919050565b600060208201905081810360008301526119c2816116ee565b9050919050565b600060208201905081810360008301526119e281611754565b9050919050565b60006020820190508181036000830152611a0281611794565b9050919050565b60006020820190508181036000830152611a22816117d4565b9050919050565b60006020820190508181036000830152611a428161183a565b9050919050565b60006020820190508181036000830152611a628161187a565b9050919050565b6000602082019050611a7e60008301846118ba565b92915050565b600060e082019050611a99600083018a6118ba565b611aa66020830189611465565b8181036040830152611ab88188611483565b90508181036060830152611acc8187611483565b90508181036080830152611ae08186611483565b9050611aef60a08301856118ba565b611afc60c08301846118ba565b98975050505050505050565b600061014082019050611b1e600083018d6118ba565b611b2b602083018c611465565b8181036040830152611b3d818b611483565b90508181036060830152611b51818a611483565b90508181036080830152611b658189611483565b9050611b7460a08301886118ba565b611b8160c08301876118ba565b611b8e60e08301866118ba565b611b9c610100830185611474565b611baa610120830184611474565b9b9a5050505050505050505050565b6000606082019050611bce60008301866118ba565b611bdb6020830185611465565b611be860408301846118ba565b949350505050565b6000604082019050611c0560008301856118ba565b611c1260208301846118ba565b9392505050565b6000606082019050611c2e60008301866118ba565b611c3b60208301856118ba565b611c486040830184611465565b949350505050565b6000604051905081810181811067ffffffffffffffff82111715611c7757611c76611ee0565b5b8060405250919050565b600067ffffffffffffffff821115611c9c57611c9b611ee0565b5b601f19601f8301169050602081019050919050565b600081519050919050565b600082825260208201905092915050565b6000611cd882611dbb565b9150611ce383611dbb565b9250827fffffffffffffffffffffffffffffffffffffffffffffffffffffffffffffffff03821115611d1857611d17611e82565b5b828201905092915050565b6000611d2e82611dbb565b9150611d3983611dbb565b9250817fffffffffffffffffffffffffffffffffffffffffffffffffffffffffffffffff0483118215151615611d7257611d71611e82565b5b828202905092915050565b6000611d8882611d9b565b9050919050565b60008115159050919050565b600073ffffffffffffffffffffffffffffffffffffffff82169050919050565b6000819050919050565b82818337600083830152505050565b60005b83811015611df2578082015181840152602081019050611dd7565b83811115611e01576000848401525b50505050565b60006002820490506001821680611e1f57607f821691505b60208210811415611e3357611e32611eb1565b5b50919050565b6000611e4482611dbb565b91507fffffffffffffffffffffffffffffffffffffffffffffffffffffffffffffffff821415611e7757611e76611e82565b5b600182019050919050565b7f4e487b7100000000000000000000000000000000000000000000000000000000600052601160045260246000fd5b7f4e487b7100000000000000000000000000000000000000000000000000000000600052602260045260246000fd5b7f4e487b7100000000000000000000000000000000000000000000000000000000600052604160045260246000fd5b6000601f19601f8301169050919050565b611f2981611d7d565b8114611f3457600080fd5b50565b611f4081611dbb565b8114611f4b57600080fd5b5056fea2646970667358221220612062017ebed6d50147becbf40772e78296f1c8fd40d06b9d7e0e1be6c1fb3364736f6c63430008000033",
  "immutableReferences": {},
  "source": "// SPDX-License-Identifier: MIT\npragma solidity ^0.8.0;\n\ncontract Crowdfunding {\n    struct Project {\n        uint id;\n        address creator;\n        string title;\n        string description;\n        string imageUrl;\n        uint fundingGoal;\n        uint amountRaised;\n        uint deadline;\n        bool completed;\n        bool funded;\n    }\n\n    mapping(uint => Project) public projects;\n    mapping(uint => mapping(address => uint)) public contributions;\n    uint public projectCount = 0;\n\n    event ProjectCreated(\n        uint id,\n        address creator,\n        string title,\n        string description,\n        string imageUrl,\n        uint fundingGoal,\n        uint deadline\n    );\n\n    event ProjectFunded(uint id, uint amount, address contributor);\n    event FundsWithdrawn(uint id, uint amount);\n    event RefundClaimed(uint id, address contributor, uint amount);\n\n    function createProject(\n        string memory _title,\n        string memory _description,\n        string memory _imageUrl,\n        uint _fundingGoal,\n        uint _durationInDays\n    ) public {\n        require(_fundingGoal > 0, \"Funding goal must be greater than 0\");\n        require(_durationInDays > 0, \"Duration must be greater than 0\");\n\n        uint deadline = block.timestamp + (_durationInDays * 1 days);\n        \n        projectCount++;\n        projects[projectCount] = Project(\n            projectCount,\n            msg.sender,\n            _title,\n            _description,\n            _imageUrl,\n            _fundingGoal,\n            0,\n            deadline,\n            false,\n            false\n        );\n\n        emit ProjectCreated(\n            projectCount,\n            msg.sender,\n            _title,\n            _description,\n            _imageUrl,\n            _fundingGoal,\n            deadline\n        );\n    }\n\n    function fundProject(uint _projectId) public payable {\n        Project storage project = projects[_projectId];\n        \n        require(project.id != 0, \"Project does not exist\");\n        require(block.timestamp < project.deadline, \"Project funding deadline has passed\");\n        require(!project.completed, \"Project is already completed\");\n        require(msg.value > 0, \"Funding amount must be greater than 0\");\n\n        contributions[_projectId][msg.sender] += msg.value;\n        project.amountRaised += msg.value;\n\n        emit ProjectFunded(_projectId, msg.value, msg.sender);\n\n        if (project.amountRaised >= project.fundingGoal) {\n            project.funded = true;\n        }\n    }\n\n    function withdrawFunds(uint _projectId) public {\n        Project storage project = projects[_projectId];\n        \n        require(project.id != 0, \"Project does not exist\");\n        require(project.creator == msg.sender, \"Only the creator can withdraw funds\");\n        require(project.amountRaised >= project.fundingGoal, \"Funding goal not reached\");\n        require(!project.completed, \"Funds already withdrawn\");\n        \n        project.completed = true;\n        payable(project.creator).transfer(project.amountRaised);\n        \n        emit FundsWithdrawn(_projectId, project.amountRaised);\n    }\n\n    function claimRefund(uint _projectId) public {\n        Project storage project = projects[_projectId];\n        \n        require(project.id != 0, \"Project does not exist\");\n        require(block.timestamp >= project.deadline, \"Project funding period not yet over\");\n        require(!project.funded, \"Project was successfully funded\");\n        require(!project.completed, \"Refunds already processed\");\n        require(contributions[_projectId][msg.sender] > 0, \"No contribution to refund\");\n        \n        uint amount = contributions[_projectId][msg.sender];\n        contributions[_projectId][msg.sender] = 0;\n        \n        payable(msg.sender).transfer(amount);\n        \n        emit RefundClaimed(_projectId, msg.sender, amount);\n    }\n\n    function getProject(uint _projectId) public view returns (\n        uint id,\n        address creator,\n        string memory title,\n        string memory description,\n        string memory imageUrl,\n        uint fundingGoal,\n        uint amountRaised,\n        uint deadline,\n        bool completed,\n        bool funded\n    ) {\n        Project memory project = projects[_projectId];\n        return (\n            project.id,\n            project.creator,\n            project.title,\n            project.description,\n            project.imageUrl,\n            project.fundingGoal,\n            project.amountRaised,\n            project.deadline,\n            project.completed,\n            project.funded\n        );\n    }\n\n    function getContribution(uint _projectId, address _contributor) public view returns (uint) {\n        return contributions[_projectId][_contributor];\n    }\n}",
  "sourcePath": "C:\\Users\\Sanika Modak\\Desktop\\Crowd_Funding\\crowdfunding-contracts\\contracts\\Crowdfunding.sol",
  "compiler": {
    "name": "solc",
    "version": "0.8.0+commit.c7dfd78e.Emscripten.clang"
  },
  "schemaVersion": "3.4.16",
  "updatedAt": "2025-03-01T09:16:52.928Z",
  "networkType": "ethereum",
  "devdoc": {
    "kind": "dev",
    "methods": {},
    "version": 1
  },
  "userdoc": {
    "kind": "user",
    "methods": {},
    "version": 1
  }
}