{
  "contractName": "Crowdfunding",
  "abi": [
    {
      "anonymous": false,
      "inputs": [
        {
          "indexed": true,
          "internalType": "uint256",
          "name": "projectId",
          "type": "uint256"
        },
        {
          "indexed": false,
          "internalType": "address",
          "name": "creator",
          "type": "address"
        }
      ],
      "name": "FundsWithdrawn",
      "type": "event"
    },
    {
      "anonymous": false,
      "inputs": [
        {
          "indexed": true,
          "internalType": "uint256",
          "name": "projectId",
          "type": "uint256"
        },
        {
          "indexed": false,
          "internalType": "string",
          "name": "title",
          "type": "string"
        },
        {
          "indexed": false,
          "internalType": "address",
          "name": "creator",
          "type": "address"
        }
      ],
      "name": "ProjectCreated",
      "type": "event"
    },
    {
      "anonymous": false,
      "inputs": [
        {
          "indexed": true,
          "internalType": "uint256",
          "name": "projectId",
          "type": "uint256"
        },
        {
          "indexed": false,
          "internalType": "address",
          "name": "backer",
          "type": "address"
        },
        {
          "indexed": false,
          "internalType": "uint256",
          "name": "amount",
          "type": "uint256"
        }
      ],
      "name": "ProjectFunded",
      "type": "event"
    },
    {
      "inputs": [
        {
          "internalType": "uint256",
          "name": "",
          "type": "uint256"
        },
        {
          "internalType": "uint256",
          "name": "",
          "type": "uint256"
        }
      ],
      "name": "backers",
      "outputs": [
        {
          "internalType": "address",
          "name": "backerAddress",
          "type": "address"
        },
        {
          "internalType": "uint256",
          "name": "amount",
          "type": "uint256"
        },
        {
          "internalType": "uint256",
          "name": "timestamp",
          "type": "uint256"
        }
      ],
      "stateMutability": "view",
      "type": "function",
      "constant": true
    },
    {
      "inputs": [],
      "name": "projectCount",
      "outputs": [
        {
          "internalType": "uint256",
          "name": "",
          "type": "uint256"
        }
      ],
      "stateMutability": "view",
      "type": "function",
      "constant": true
    },
    {
      "inputs": [
        {
          "internalType": "uint256",
          "name": "",
          "type": "uint256"
        }
      ],
      "name": "projects",
      "outputs": [
        {
          "internalType": "uint256",
          "name": "id",
          "type": "uint256"
        },
        {
          "internalType": "string",
          "name": "title",
          "type": "string"
        },
        {
          "internalType": "string",
          "name": "description",
          "type": "string"
        },
        {
          "internalType": "uint256",
          "name": "fundingGoal",
          "type": "uint256"
        },
        {
          "internalType": "uint256",
          "name": "currentFunding",
          "type": "uint256"
        },
        {
          "internalType": "uint256",
          "name": "deadline",
          "type": "uint256"
        },
        {
          "internalType": "string",
          "name": "imageUrl",
          "type": "string"
        },
        {
          "internalType": "string",
          "name": "category",
          "type": "string"
        },
        {
          "internalType": "address",
          "name": "creator",
          "type": "address"
        },
        {
          "internalType": "bool",
          "name": "isFunded",
          "type": "bool"
        },
        {
          "internalType": "bool",
          "name": "isExpired",
          "type": "bool"
        }
      ],
      "stateMutability": "view",
      "type": "function",
      "constant": true
    },
    {
      "inputs": [
        {
          "internalType": "string",
          "name": "_title",
          "type": "string"
        },
        {
          "internalType": "string",
          "name": "_description",
          "type": "string"
        },
        {
          "internalType": "uint256",
          "name": "_fundingGoal",
          "type": "uint256"
        },
        {
          "internalType": "uint256",
          "name": "_deadline",
          "type": "uint256"
        },
        {
          "internalType": "string",
          "name": "_imageUrl",
          "type": "string"
        },
        {
          "internalType": "string",
          "name": "_category",
          "type": "string"
        }
      ],
      "name": "createProject",
      "outputs": [
        {
          "internalType": "uint256",
          "name": "",
          "type": "uint256"
        }
      ],
      "stateMutability": "nonpayable",
      "type": "function"
    },
    {
      "inputs": [],
      "name": "getProjects",
      "outputs": [
        {
          "components": [
            {
              "internalType": "uint256",
              "name": "id",
              "type": "uint256"
            },
            {
              "internalType": "string",
              "name": "title",
              "type": "string"
            },
            {
              "internalType": "string",
              "name": "description",
              "type": "string"
            },
            {
              "internalType": "uint256",
              "name": "fundingGoal",
              "type": "uint256"
            },
            {
              "internalType": "uint256",
              "name": "currentFunding",
              "type": "uint256"
            },
            {
              "internalType": "uint256",
              "name": "deadline",
              "type": "uint256"
            },
            {
              "internalType": "string",
              "name": "imageUrl",
              "type": "string"
            },
            {
              "internalType": "string",
              "name": "category",
              "type": "string"
            },
            {
              "internalType": "address",
              "name": "creator",
              "type": "address"
            },
            {
              "internalType": "bool",
              "name": "isFunded",
              "type": "bool"
            },
            {
              "internalType": "bool",
              "name": "isExpired",
              "type": "bool"
            }
          ],
          "internalType": "struct Crowdfunding.Project[]",
          "name": "",
          "type": "tuple[]"
        }
      ],
      "stateMutability": "view",
      "type": "function",
      "constant": true
    },
    {
      "inputs": [
        {
          "internalType": "uint256",
          "name": "_projectId",
          "type": "uint256"
        }
      ],
      "name": "getProject",
      "outputs": [
        {
          "components": [
            {
              "internalType": "uint256",
              "name": "id",
              "type": "uint256"
            },
            {
              "internalType": "string",
              "name": "title",
              "type": "string"
            },
            {
              "internalType": "string",
              "name": "description",
              "type": "string"
            },
            {
              "internalType": "uint256",
              "name": "fundingGoal",
              "type": "uint256"
            },
            {
              "internalType": "uint256",
              "name": "currentFunding",
              "type": "uint256"
            },
            {
              "internalType": "uint256",
              "name": "deadline",
              "type": "uint256"
            },
            {
              "internalType": "string",
              "name": "imageUrl",
              "type": "string"
            },
            {
              "internalType": "string",
              "name": "category",
              "type": "string"
            },
            {
              "internalType": "address",
              "name": "creator",
              "type": "address"
            },
            {
              "internalType": "bool",
              "name": "isFunded",
              "type": "bool"
            },
            {
              "internalType": "bool",
              "name": "isExpired",
              "type": "bool"
            }
          ],
          "internalType": "struct Crowdfunding.Project",
          "name": "",
          "type": "tuple"
        }
      ],
      "stateMutability": "view",
      "type": "function",
      "constant": true
    },
    {
      "inputs": [
        {
          "internalType": "uint256",
          "name": "_projectId",
          "type": "uint256"
        }
      ],
      "name": "fundProject",
      "outputs": [],
      "stateMutability": "payable",
      "type": "function",
      "payable": true
    },
    {
      "inputs": [
        {
          "internalType": "uint256",
          "name": "_projectId",
          "type": "uint256"
        }
      ],
      "name": "withdrawFunds",
      "outputs": [],
      "stateMutability": "nonpayable",
      "type": "function"
    },
    {
      "inputs": [
        {
          "internalType": "uint256",
          "name": "_projectId",
          "type": "uint256"
        }
      ],
      "name": "getBackers",
      "outputs": [
        {
          "components": [
            {
              "internalType": "address",
              "name": "backerAddress",
              "type": "address"
            },
            {
              "internalType": "uint256",
              "name": "amount",
              "type": "uint256"
            },
            {
              "internalType": "uint256",
              "name": "timestamp",
              "type": "uint256"
            }
          ],
          "internalType": "struct Crowdfunding.Backer[]",
          "name": "",
          "type": "tuple[]"
        }
      ],
      "stateMutability": "view",
      "type": "function",
      "constant": true
    },
    {
      "inputs": [
        {
          "internalType": "uint256",
          "name": "_projectId",
          "type": "uint256"
        }
      ],
      "name": "isProjectCreator",
      "outputs": [
        {
          "internalType": "bool",
          "name": "",
          "type": "bool"
        }
      ],
      "stateMutability": "view",
      "type": "function",
      "constant": true
    },
    {
      "inputs": [
        {
          "internalType": "uint256",
          "name": "_projectId",
          "type": "uint256"
        }
      ],
      "name": "isProjectBacker",
      "outputs": [
        {
          "internalType": "bool",
          "name": "",
          "type": "bool"
        }
      ],
      "stateMutability": "view",
      "type": "function",
      "constant": true
    }
  ],
  "bytecode": "0x608060405234801561001057600080fd5b506129dd806100206000396000f3fe60806040526004361061009c5760003560e01c80638a18362c116100645780638a18362c14610195578063935e1282146101d4578063c9168b7214610211578063dcc601281461024e578063f0f3f2c814610279578063f2041b56146102b65761009c565b8063107046bd146100a1578063155dd5ee146100e8578063226a00e21461011157806336fbad261461014e5780636c563abe14610179575b600080fd5b3480156100ad57600080fd5b506100c860048036038101906100c39190611cc3565b6102f3565b6040516100df9b9a999897969594939291906125d0565b60405180910390f35b3480156100f457600080fd5b5061010f600480360381019061010a9190611cc3565b6105b7565b005b34801561011d57600080fd5b5061013860048036038101906101339190611cc3565b61098e565b6040516101459190612448565b60405180910390f35b34801561015a57600080fd5b50610163610acf565b60405161017091906125b5565b60405180910390f35b610193600480360381019061018e9190611cc3565b610ad5565b005b3480156101a157600080fd5b506101bc60048036038101906101b79190611cec565b610e2c565b6040516101cb939291906123cd565b60405180910390f35b3480156101e057600080fd5b506101fb60048036038101906101f69190611bda565b610e93565b60405161020891906125b5565b60405180910390f35b34801561021d57600080fd5b5061023860048036038101906102339190611cc3565b611138565b6040516102459190612404565b60405180910390f35b34801561025a57600080fd5b5061026361125b565b6040516102709190612426565b60405180910390f35b34801561028557600080fd5b506102a0600480360381019061029b9190611cc3565b6115b7565b6040516102ad9190612593565b60405180910390f35b3480156102c257600080fd5b506102dd60048036038101906102d89190611cc3565b61195d565b6040516102ea9190612448565b60405180910390f35b6000818154811061030357600080fd5b906000526020600020906009020160009150905080600001549080600101805461032c90612877565b80601f016020809104026020016040519081016040528092919081815260200182805461035890612877565b80156103a55780601f1061037a576101008083540402835291602001916103a5565b820191906000526020600020905b81548152906001019060200180831161038857829003601f168201915b5050505050908060020180546103ba90612877565b80601f01602080910402602001604051908101604052809291908181526020018280546103e690612877565b80156104335780601f1061040857610100808354040283529160200191610433565b820191906000526020600020905b81548152906001019060200180831161041657829003601f168201915b50505050509080600301549080600401549080600501549080600601805461045a90612877565b80601f016020809104026020016040519081016040528092919081815260200182805461048690612877565b80156104d35780601f106104a8576101008083540402835291602001916104d3565b820191906000526020600020905b8154815290600101906020018083116104b657829003601f168201915b5050505050908060070180546104e890612877565b80601f016020809104026020016040519081016040528092919081815260200182805461051490612877565b80156105615780601f1061053657610100808354040283529160200191610561565b820191906000526020600020905b81548152906001019060200180831161054457829003601f168201915b5050505050908060080160009054906101000a900473ffffffffffffffffffffffffffffffffffffffff16908060080160149054906101000a900460ff16908060080160159054906101000a900460ff1690508b565b60008054905081106105fe576040517f08c379a00000000000000000000000000000000000000000000000000000000081526004016105f590612553565b60405180910390fd5b3373ffffffffffffffffffffffffffffffffffffffff166000828154811061064f577f4e487b7100000000000000000000000000000000000000000000000000000000600052603260045260246000fd5b906000526020600020906009020160080160009054906101000a900473ffffffffffffffffffffffffffffffffffffffff1673ffffffffffffffffffffffffffffffffffffffff16146106d7576040517f08c379a00000000000000000000000000000000000000000000000000000000081526004016106ce906124f3565b60405180910390fd5b60008181548110610711577f4e487b7100000000000000000000000000000000000000000000000000000000600052603260045260246000fd5b906000526020600020906009020160080160149054906101000a900460ff1661076f576040517f08c379a000000000000000000000000000000000000000000000000000000000815260040161076690612493565b60405180910390fd5b600081815481106107a9577f4e487b7100000000000000000000000000000000000000000000000000000000600052603260045260246000fd5b906000526020600020906009020160080160159054906101000a900460ff1615610808576040517f08c379a00000000000000000000000000000000000000000000000000000000081526004016107ff906124d3565b60405180910390fd5b6000808281548110610843577f4e487b7100000000000000000000000000000000000000000000000000000000600052603260045260246000fd5b90600052602060002090600902016004015490506000808381548110610892577f4e487b7100000000000000000000000000000000000000000000000000000000600052603260045260246000fd5b9060005260206000209060090201600401819055506001600083815481106108e3577f4e487b7100000000000000000000000000000000000000000000000000000000600052603260045260246000fd5b906000526020600020906009020160080160156101000a81548160ff0219169083151502179055503373ffffffffffffffffffffffffffffffffffffffff166108fc829081150290604051600060405180830381858888f19350505050158015610951573d6000803e3d6000fd5b50817f6141b54b56b8a52a8c6f5cd2a857f6117b18ffbf4d46bd3106f300a839cbf5ea336040516109829190612389565b60405180910390a25050565b6000808054905082106109d6576040517f08c379a00000000000000000000000000000000000000000000000000000000081526004016109cd90612553565b60405180910390fd5b60005b6001600084815260200190815260200160002080549050811015610ac4573373ffffffffffffffffffffffffffffffffffffffff16600160008581526020019081526020016000208281548110610a59577f4e487b7100000000000000000000000000000000000000000000000000000000600052603260045260246000fd5b906000526020600020906003020160000160009054906101000a900473ffffffffffffffffffffffffffffffffffffffff1673ffffffffffffffffffffffffffffffffffffffff161415610ab1576001915050610aca565b8080610abc906128a9565b9150506109d9565b50600090505b919050565b60025481565b6000805490508110610b1c576040517f08c379a0000000000000000000000000000000000000000000000000000000008152600401610b1390612553565b60405180910390fd5b60003411610b5f576040517f08c379a0000000000000000000000000000000000000000000000000000000008152600401610b56906124b3565b60405180910390fd5b60008181548110610b99577f4e487b7100000000000000000000000000000000000000000000000000000000600052603260045260246000fd5b906000526020600020906009020160080160159054906101000a900460ff1615610bf8576040517f08c379a0000000000000000000000000000000000000000000000000000000008152600401610bef906124d3565b60405180910390fd5b60008181548110610c32577f4e487b7100000000000000000000000000000000000000000000000000000000600052603260045260246000fd5b906000526020600020906009020160080160149054906101000a900460ff1615610c91576040517f08c379a0000000000000000000000000000000000000000000000000000000008152600401610c8890612573565b60405180910390fd5b6000808281548110610ccc577f4e487b7100000000000000000000000000000000000000000000000000000000600052603260045260246000fd5b9060005260206000209060090201905034816004016000828254610cf09190612797565b925050819055506001600083815260200190815260200160002060405180606001604052803373ffffffffffffffffffffffffffffffffffffffff16815260200134815260200142815250908060018154018082558091505060019003906000526020600020906003020160009091909190915060008201518160000160006101000a81548173ffffffffffffffffffffffffffffffffffffffff021916908373ffffffffffffffffffffffffffffffffffffffff160217905550602082015181600101556040820151816002015550508060030154816004015410610dee5760018160080160146101000a81548160ff0219169083151502179055505b817f6251418ffd7f504740544ec3d578897633e212c5d658b7dce793c5dc9d2e855e3334604051610e209291906123a4565b60405180910390a25050565b60016020528160005260406000208181548110610e4857600080fd5b9060005260206000209060030201600091509150508060000160009054906101000a900473ffffffffffffffffffffffffffffffffffffffff16908060010154908060020154905083565b6000808511610ed7576040517f08c379a0000000000000000000000000000000000000000000000000000000008152600401610ece90612513565b60405180910390fd5b428411610f19576040517f08c379a0000000000000000000000000000000000000000000000000000000008152600401610f1090612533565b60405180910390fd5b600060026000815480929190610f2e906128a9565b91905055905060006040518061016001604052808381526020018a8152602001898152602001888152602001600081526020018781526020018681526020018581526020013373ffffffffffffffffffffffffffffffffffffffff168152602001600015158152602001600015158152509080600181540180825580915050600190039060005260206000209060090201600090919091909150600082015181600001556020820151816001019080519060200190610fee929190611a46565b50604082015181600201908051906020019061100b929190611a46565b50606082015181600301556080820151816004015560a0820151816005015560c0820151816006019080519060200190611046929190611a46565b5060e0820151816007019080519060200190611063929190611a46565b506101008201518160080160006101000a81548173ffffffffffffffffffffffffffffffffffffffff021916908373ffffffffffffffffffffffffffffffffffffffff1602179055506101208201518160080160146101000a81548160ff0219169083151502179055506101408201518160080160156101000a81548160ff0219169083151502179055505050807fc0c54fed07481d0998e1446b2c13759606bf4f26b78306307413ac4c4309aa828933604051611122929190612463565b60405180910390a2809150509695505050505050565b60606000805490508210611181576040517f08c379a000000000000000000000000000000000000000000000000000000000815260040161117890612553565b60405180910390fd5b60016000838152602001908152602001600020805480602002602001604051908101604052809291908181526020016000905b8282101561125057838290600052602060002090600302016040518060600160405290816000820160009054906101000a900473ffffffffffffffffffffffffffffffffffffffff1673ffffffffffffffffffffffffffffffffffffffff1673ffffffffffffffffffffffffffffffffffffffff16815260200160018201548152602001600282015481525050815260200190600101906111b4565b505050509050919050565b60606000805480602002602001604051908101604052809291908181526020016000905b828210156115ae578382906000526020600020906009020160405180610160016040529081600082015481526020016001820180546112bd90612877565b80601f01602080910402602001604051908101604052809291908181526020018280546112e990612877565b80156113365780601f1061130b57610100808354040283529160200191611336565b820191906000526020600020905b81548152906001019060200180831161131957829003601f168201915b5050505050815260200160028201805461134f90612877565b80601f016020809104026020016040519081016040528092919081815260200182805461137b90612877565b80156113c85780601f1061139d576101008083540402835291602001916113c8565b820191906000526020600020905b8154815290600101906020018083116113ab57829003601f168201915b505050505081526020016003820154815260200160048201548152602001600582015481526020016006820180546113ff90612877565b80601f016020809104026020016040519081016040528092919081815260200182805461142b90612877565b80156114785780601f1061144d57610100808354040283529160200191611478565b820191906000526020600020905b81548152906001019060200180831161145b57829003601f168201915b5050505050815260200160078201805461149190612877565b80601f01602080910402602001604051908101604052809291908181526020018280546114bd90612877565b801561150a5780601f106114df5761010080835404028352916020019161150a565b820191906000526020600020905b8154815290600101906020018083116114ed57829003601f168201915b505050505081526020016008820160009054906101000a900473ffffffffffffffffffffffffffffffffffffffff1673ffffffffffffffffffffffffffffffffffffffff1673ffffffffffffffffffffffffffffffffffffffff1681526020016008820160149054906101000a900460ff161515151581526020016008820160159054906101000a900460ff1615151515815250508152602001906001019061127f565b50505050905090565b6115bf611acc565b6000805490508210611606576040517f08c379a00000000000000000000000000000000000000000000000000000000081526004016115fd90612553565b60405180910390fd5b60008281548110611640577f4e487b7100000000000000000000000000000000000000000000000000000000600052603260045260246000fd5b9060005260206000209060090201604051806101600160405290816000820154815260200160018201805461167490612877565b80601f01602080910402602001604051908101604052809291908181526020018280546116a090612877565b80156116ed5780601f106116c2576101008083540402835291602001916116ed565b820191906000526020600020905b8154815290600101906020018083116116d057829003601f168201915b5050505050815260200160028201805461170690612877565b80601f016020809104026020016040519081016040528092919081815260200182805461173290612877565b801561177f5780601f106117545761010080835404028352916020019161177f565b820191906000526020600020905b81548152906001019060200180831161176257829003601f168201915b505050505081526020016003820154815260200160048201548152602001600582015481526020016006820180546117b690612877565b80601f01602080910402602001604051908101604052809291908181526020018280546117e290612877565b801561182f5780601f106118045761010080835404028352916020019161182f565b820191906000526020600020905b81548152906001019060200180831161181257829003601f168201915b5050505050815260200160078201805461184890612877565b80601f016020809104026020016040519081016040528092919081815260200182805461187490612877565b80156118c15780601f10611896576101008083540402835291602001916118c1565b820191906000526020600020905b8154815290600101906020018083116118a457829003601f168201915b505050505081526020016008820160009054906101000a900473ffffffffffffffffffffffffffffffffffffffff1673ffffffffffffffffffffffffffffffffffffffff1673ffffffffffffffffffffffffffffffffffffffff1681526020016008820160149054906101000a900460ff161515151581526020016008820160159054906101000a900460ff1615151515815250509050919050565b6000808054905082106119a5576040517f08c379a000000000000000000000000000000000000000000000000000000000815260040161199c90612553565b60405180910390fd5b3373ffffffffffffffffffffffffffffffffffffffff16600083815481106119f6577f4e487b7100000000000000000000000000000000000000000000000000000000600052603260045260246000fd5b906000526020600020906009020160080160009054906101000a900473ffffffffffffffffffffffffffffffffffffffff1673ffffffffffffffffffffffffffffffffffffffff16149050919050565b828054611a5290612877565b90600052602060002090601f016020900481019282611a745760008555611abb565b82601f10611a8d57805160ff1916838001178555611abb565b82800160010185558215611abb579182015b82811115611aba578251825591602001919060010190611a9f565b5b509050611ac89190611b40565b5090565b6040518061016001604052806000815260200160608152602001606081526020016000815260200160008152602001600081526020016060815260200160608152602001600073ffffffffffffffffffffffffffffffffffffffff1681526020016000151581526020016000151581525090565b5b80821115611b59576000816000905550600101611b41565b5090565b6000611b70611b6b846126c8565b612697565b905082815260208101848484011115611b8857600080fd5b611b93848285612835565b509392505050565b600082601f830112611bac57600080fd5b8135611bbc848260208601611b5d565b91505092915050565b600081359050611bd481612990565b92915050565b60008060008060008060c08789031215611bf357600080fd5b600087013567ffffffffffffffff811115611c0d57600080fd5b611c1989828a01611b9b565b965050602087013567ffffffffffffffff811115611c3657600080fd5b611c4289828a01611b9b565b9550506040611c5389828a01611bc5565b9450506060611c6489828a01611bc5565b935050608087013567ffffffffffffffff811115611c8157600080fd5b611c8d89828a01611b9b565b92505060a087013567ffffffffffffffff811115611caa57600080fd5b611cb689828a01611b9b565b9150509295509295509295565b600060208284031215611cd557600080fd5b6000611ce384828501611bc5565b91505092915050565b60008060408385031215611cff57600080fd5b6000611d0d85828601611bc5565b9250506020611d1e85828601611bc5565b9150509250929050565b6000611d348383612121565b60608301905092915050565b6000611d4c8383612163565b905092915050565b611d5d816127ed565b82525050565b611d6c816127ed565b82525050565b6000611d7d82612718565b611d878185612753565b9350611d92836126f8565b8060005b83811015611dc3578151611daa8882611d28565b9750611db583612739565b925050600181019050611d96565b5085935050505092915050565b6000611ddb82612723565b611de58185612764565b935083602082028501611df785612708565b8060005b85811015611e335784840389528151611e148582611d40565b9450611e1f83612746565b925060208a01995050600181019050611dfb565b50829750879550505050505092915050565b611e4e816127ff565b82525050565b611e5d816127ff565b82525050565b6000611e6e8261272e565b611e788185612775565b9350611e88818560208601612844565b611e918161297f565b840191505092915050565b6000611ea78261272e565b611eb18185612786565b9350611ec1818560208601612844565b611eca8161297f565b840191505092915050565b6000611ee2601583612786565b91507f50726f6a656374206973206e6f742066756e64656400000000000000000000006000830152602082019050919050565b6000611f22602583612786565b91507f46756e64696e6720616d6f756e74206d7573742062652067726561746572207460008301527f68616e20300000000000000000000000000000000000000000000000000000006020830152604082019050919050565b6000611f88601383612786565b91507f50726f6a656374206861732065787069726564000000000000000000000000006000830152602082019050919050565b6000611fc8601983612786565b91507f4f6e6c792063726561746f722063616e207769746864726177000000000000006000830152602082019050919050565b6000612008602383612786565b91507f46756e64696e6720676f616c206d75737420626520677265617465722074686160008301527f6e203000000000000000000000000000000000000000000000000000000000006020830152604082019050919050565b600061206e601e83612786565b91507f446561646c696e65206d75737420626520696e207468652066757475726500006000830152602082019050919050565b60006120ae601683612786565b91507f50726f6a65637420646f6573206e6f74206578697374000000000000000000006000830152602082019050919050565b60006120ee601983612786565b91507f50726f6a65637420697320616c72656164792066756e646564000000000000006000830152602082019050919050565b6060820160008201516121376000850182611d54565b50602082015161214a602085018261236b565b50604082015161215d604085018261236b565b50505050565b60006101608301600083015161217c600086018261236b565b50602083015184820360208601526121948282611e63565b915050604083015184820360408601526121ae8282611e63565b91505060608301516121c3606086018261236b565b5060808301516121d6608086018261236b565b5060a08301516121e960a086018261236b565b5060c083015184820360c08601526122018282611e63565b91505060e083015184820360e086015261221b8282611e63565b915050610100830151612232610100860182611d54565b50610120830151612247610120860182611e45565b5061014083015161225c610140860182611e45565b508091505092915050565b600061016083016000830151612280600086018261236b565b50602083015184820360208601526122988282611e63565b915050604083015184820360408601526122b28282611e63565b91505060608301516122c7606086018261236b565b5060808301516122da608086018261236b565b5060a08301516122ed60a086018261236b565b5060c083015184820360c08601526123058282611e63565b91505060e083015184820360e086015261231f8282611e63565b915050610100830151612336610100860182611d54565b5061012083015161234b610120860182611e45565b50610140830151612360610140860182611e45565b508091505092915050565b6123748161282b565b82525050565b6123838161282b565b82525050565b600060208201905061239e6000830184611d63565b92915050565b60006040820190506123b96000830185611d63565b6123c6602083018461237a565b9392505050565b60006060820190506123e26000830186611d63565b6123ef602083018561237a565b6123fc604083018461237a565b949350505050565b6000602082019050818103600083015261241e8184611d72565b905092915050565b600060208201905081810360008301526124408184611dd0565b905092915050565b600060208201905061245d6000830184611e54565b92915050565b6000604082019050818103600083015261247d8185611e9c565b905061248c6020830184611d63565b9392505050565b600060208201905081810360008301526124ac81611ed5565b9050919050565b600060208201905081810360008301526124cc81611f15565b9050919050565b600060208201905081810360008301526124ec81611f7b565b9050919050565b6000602082019050818103600083015261250c81611fbb565b9050919050565b6000602082019050818103600083015261252c81611ffb565b9050919050565b6000602082019050818103600083015261254c81612061565b9050919050565b6000602082019050818103600083015261256c816120a1565b9050919050565b6000602082019050818103600083015261258c816120e1565b9050919050565b600060208201905081810360008301526125ad8184612267565b905092915050565b60006020820190506125ca600083018461237a565b92915050565b6000610160820190506125e6600083018e61237a565b81810360208301526125f8818d611e9c565b9050818103604083015261260c818c611e9c565b905061261b606083018b61237a565b612628608083018a61237a565b61263560a083018961237a565b81810360c08301526126478188611e9c565b905081810360e083015261265b8187611e9c565b905061266b610100830186611d63565b612679610120830185611e54565b612687610140830184611e54565b9c9b505050505050505050505050565b6000604051905081810181811067ffffffffffffffff821117156126be576126bd612950565b5b8060405250919050565b600067ffffffffffffffff8211156126e3576126e2612950565b5b601f19601f8301169050602081019050919050565b6000819050602082019050919050565b6000819050602082019050919050565b600081519050919050565b600081519050919050565b600081519050919050565b6000602082019050919050565b6000602082019050919050565b600082825260208201905092915050565b600082825260208201905092915050565b600082825260208201905092915050565b600082825260208201905092915050565b60006127a28261282b565b91506127ad8361282b565b9250827fffffffffffffffffffffffffffffffffffffffffffffffffffffffffffffffff038211156127e2576127e16128f2565b5b828201905092915050565b60006127f88261280b565b9050919050565b60008115159050919050565b600073ffffffffffffffffffffffffffffffffffffffff82169050919050565b6000819050919050565b82818337600083830152505050565b60005b83811015612862578082015181840152602081019050612847565b83811115612871576000848401525b50505050565b6000600282049050600182168061288f57607f821691505b602082108114156128a3576128a2612921565b5b50919050565b60006128b48261282b565b91507fffffffffffffffffffffffffffffffffffffffffffffffffffffffffffffffff8214156128e7576128e66128f2565b5b600182019050919050565b7f4e487b7100000000000000000000000000000000000000000000000000000000600052601160045260246000fd5b7f4e487b7100000000000000000000000000000000000000000000000000000000600052602260045260246000fd5b7f4e487b7100000000000000000000000000000000000000000000000000000000600052604160045260246000fd5b6000601f19601f8301169050919050565b6129998161282b565b81146129a457600080fd5b5056fea264697066735822122048a60e1759292c8f15d2f433b320039451c3a81d54f51d1c01e80fe66f30387d64736f6c63430008000033",
  "immutableReferences": {},
  "source": "// SPDX-License-Identifier: MIT\r\npragma solidity ^0.8.0;\r\n\r\ncontract Crowdfunding {\r\n    struct Project {\r\n        uint256 id;\r\n        string title;\r\n        string description;\r\n        uint256 fundingGoal;\r\n        uint256 currentFunding;\r\n        uint256 deadline;\r\n        string imageUrl;\r\n        string category;\r\n        address creator;\r\n        bool isFunded;\r\n        bool isExpired;\r\n    }\r\n\r\n    struct Backer {\r\n        address backerAddress;\r\n        uint256 amount;\r\n        uint256 timestamp;\r\n    }\r\n\r\n    Project[] public projects;\r\n    mapping(uint256 => Backer[]) public backers;\r\n    uint256 public projectCount;\r\n\r\n    event ProjectCreated(uint256 indexed projectId, string title, address creator);\r\n    event ProjectFunded(uint256 indexed projectId, address backer, uint256 amount);\r\n    event FundsWithdrawn(uint256 indexed projectId, address creator);\r\n\r\n    function createProject(\r\n        string memory _title,\r\n        string memory _description,\r\n        uint256 _fundingGoal,\r\n        uint256 _deadline,\r\n        string memory _imageUrl,\r\n        string memory _category\r\n    ) public returns (uint256) {\r\n        require(_fundingGoal > 0, \"Funding goal must be greater than 0\");\r\n        require(_deadline > block.timestamp, \"Deadline must be in the future\");\r\n\r\n        uint256 projectId = projectCount++;\r\n        projects.push(Project({\r\n            id: projectId,\r\n            title: _title,\r\n            description: _description,\r\n            fundingGoal: _fundingGoal,\r\n            currentFunding: 0,\r\n            deadline: _deadline,\r\n            imageUrl: _imageUrl,\r\n            category: _category,\r\n            creator: msg.sender,\r\n            isFunded: false,\r\n            isExpired: false\r\n        }));\r\n\r\n        emit ProjectCreated(projectId, _title, msg.sender);\r\n        return projectId;\r\n    }\r\n\r\n    function getProjects() public view returns (Project[] memory) {\r\n        return projects;\r\n    }\r\n\r\n    function getProject(uint256 _projectId) public view returns (Project memory) {\r\n        require(_projectId < projects.length, \"Project does not exist\");\r\n        return projects[_projectId];\r\n    }\r\n\r\n    function fundProject(uint256 _projectId) public payable {\r\n        require(_projectId < projects.length, \"Project does not exist\");\r\n        require(msg.value > 0, \"Funding amount must be greater than 0\");\r\n        require(!projects[_projectId].isExpired, \"Project has expired\");\r\n        require(!projects[_projectId].isFunded, \"Project is already funded\");\r\n\r\n        Project storage project = projects[_projectId];\r\n        project.currentFunding += msg.value;\r\n\r\n        backers[_projectId].push(Backer({\r\n            backerAddress: msg.sender,\r\n            amount: msg.value,\r\n            timestamp: block.timestamp\r\n        }));\r\n\r\n        if (project.currentFunding >= project.fundingGoal) {\r\n            project.isFunded = true;\r\n        }\r\n\r\n        emit ProjectFunded(_projectId, msg.sender, msg.value);\r\n    }\r\n\r\n    function withdrawFunds(uint256 _projectId) public {\r\n        require(_projectId < projects.length, \"Project does not exist\");\r\n        require(projects[_projectId].creator == msg.sender, \"Only creator can withdraw\");\r\n        require(projects[_projectId].isFunded, \"Project is not funded\");\r\n        require(!projects[_projectId].isExpired, \"Project has expired\");\r\n\r\n        uint256 amount = projects[_projectId].currentFunding;\r\n        projects[_projectId].currentFunding = 0;\r\n        projects[_projectId].isExpired = true;\r\n\r\n        payable(msg.sender).transfer(amount);\r\n        emit FundsWithdrawn(_projectId, msg.sender);\r\n    }\r\n\r\n    function getBackers(uint256 _projectId) public view returns (Backer[] memory) {\r\n        require(_projectId < projects.length, \"Project does not exist\");\r\n        return backers[_projectId];\r\n    }\r\n\r\n    function isProjectCreator(uint256 _projectId) public view returns (bool) {\r\n        require(_projectId < projects.length, \"Project does not exist\");\r\n        return projects[_projectId].creator == msg.sender;\r\n    }\r\n\r\n    function isProjectBacker(uint256 _projectId) public view returns (bool) {\r\n        require(_projectId < projects.length, \"Project does not exist\");\r\n        for (uint i = 0; i < backers[_projectId].length; i++) {\r\n            if (backers[_projectId][i].backerAddress == msg.sender) {\r\n                return true;\r\n            }\r\n        }\r\n        return false;\r\n    }\r\n} ",
  "sourcePath": "E:\\Crowd_Funding-new\\contracts\\Crowdfunding.sol",
  "compiler": {
    "name": "solc",
    "version": "0.8.0+commit.c7dfd78e.Emscripten.clang"
  },
  "schemaVersion": "3.4.11",
  "updatedAt": "2025-03-24T15:23:07.055Z",
  "networkType": "ethereum",
  "devdoc": {
    "kind": "dev",
    "methods": {},
    "version": 1
  },
  "userdoc": {
    "kind": "user",
    "methods": {},
    "version": 1
  }
}